{
  "_format": "hh-sol-artifact-1",
  "contractName": "ReviewNFTContract",
  "sourceName": "contracts/ReviewNFTContract.sol",
  "abi": [
    {
      "inputs": [],
      "stateMutability": "nonpayable",
      "type": "constructor"
    },
    {
      "inputs": [
        {
          "internalType": "address",
          "name": "sender",
          "type": "address"
        },
        {
          "internalType": "uint256",
          "name": "tokenId",
          "type": "uint256"
        },
        {
          "internalType": "address",
          "name": "owner",
          "type": "address"
        }
      ],
      "name": "ERC721IncorrectOwner",
      "type": "error"
    },
    {
      "inputs": [
        {
          "internalType": "address",
          "name": "operator",
          "type": "address"
        },
        {
          "internalType": "uint256",
          "name": "tokenId",
          "type": "uint256"
        }
      ],
      "name": "ERC721InsufficientApproval",
      "type": "error"
    },
    {
      "inputs": [
        {
          "internalType": "address",
          "name": "approver",
          "type": "address"
        }
      ],
      "name": "ERC721InvalidApprover",
      "type": "error"
    },
    {
      "inputs": [
        {
          "internalType": "address",
          "name": "operator",
          "type": "address"
        }
      ],
      "name": "ERC721InvalidOperator",
      "type": "error"
    },
    {
      "inputs": [
        {
          "internalType": "address",
          "name": "owner",
          "type": "address"
        }
      ],
      "name": "ERC721InvalidOwner",
      "type": "error"
    },
    {
      "inputs": [
        {
          "internalType": "address",
          "name": "receiver",
          "type": "address"
        }
      ],
      "name": "ERC721InvalidReceiver",
      "type": "error"
    },
    {
      "inputs": [
        {
          "internalType": "address",
          "name": "sender",
          "type": "address"
        }
      ],
      "name": "ERC721InvalidSender",
      "type": "error"
    },
    {
      "inputs": [
        {
          "internalType": "uint256",
          "name": "tokenId",
          "type": "uint256"
        }
      ],
      "name": "ERC721NonexistentToken",
      "type": "error"
    },
    {
      "anonymous": false,
      "inputs": [
        {
          "indexed": true,
          "internalType": "address",
          "name": "owner",
          "type": "address"
        },
        {
          "indexed": true,
          "internalType": "address",
          "name": "approved",
          "type": "address"
        },
        {
          "indexed": true,
          "internalType": "uint256",
          "name": "tokenId",
          "type": "uint256"
        }
      ],
      "name": "Approval",
      "type": "event"
    },
    {
      "anonymous": false,
      "inputs": [
        {
          "indexed": true,
          "internalType": "address",
          "name": "owner",
          "type": "address"
        },
        {
          "indexed": true,
          "internalType": "address",
          "name": "operator",
          "type": "address"
        },
        {
          "indexed": false,
          "internalType": "bool",
          "name": "approved",
          "type": "bool"
        }
      ],
      "name": "ApprovalForAll",
      "type": "event"
    },
    {
      "anonymous": false,
      "inputs": [
        {
          "indexed": false,
          "internalType": "uint256",
          "name": "_fromTokenId",
          "type": "uint256"
        },
        {
          "indexed": false,
          "internalType": "uint256",
          "name": "_toTokenId",
          "type": "uint256"
        }
      ],
      "name": "BatchMetadataUpdate",
      "type": "event"
    },
    {
      "anonymous": false,
      "inputs": [
        {
          "indexed": false,
          "internalType": "string",
          "name": "domain",
          "type": "string"
        }
      ],
      "name": "DomainRegistered",
      "type": "event"
    },
    {
      "anonymous": false,
      "inputs": [
        {
          "indexed": true,
          "internalType": "uint256",
          "name": "tokenId",
          "type": "uint256"
        },
        {
          "indexed": false,
          "internalType": "address",
          "name": "seller",
          "type": "address"
        },
        {
          "indexed": false,
          "internalType": "address",
          "name": "owner",
          "type": "address"
        },
        {
          "indexed": false,
          "internalType": "uint256",
          "name": "price",
          "type": "uint256"
        },
        {
          "indexed": false,
          "internalType": "bool",
          "name": "sold",
          "type": "bool"
        },
        {
          "indexed": false,
          "internalType": "string",
          "name": "businessDomain",
          "type": "string"
        }
      ],
      "name": "MarketItemCreated",
      "type": "event"
    },
    {
      "anonymous": false,
      "inputs": [
        {
          "indexed": false,
          "internalType": "uint256",
          "name": "_tokenId",
          "type": "uint256"
        }
      ],
      "name": "MetadataUpdate",
      "type": "event"
    },
    {
      "anonymous": false,
      "inputs": [
        {
          "indexed": true,
          "internalType": "uint256",
          "name": "tokenId",
          "type": "uint256"
        },
        {
          "indexed": false,
          "internalType": "address",
          "name": "voter",
          "type": "address"
        },
        {
          "indexed": false,
          "internalType": "bool",
          "name": "isUpvote",
          "type": "bool"
        }
      ],
      "name": "ReviewVoted",
      "type": "event"
    },
    {
      "anonymous": false,
      "inputs": [
        {
          "indexed": true,
          "internalType": "address",
          "name": "from",
          "type": "address"
        },
        {
          "indexed": true,
          "internalType": "address",
          "name": "to",
          "type": "address"
        },
        {
          "indexed": true,
          "internalType": "uint256",
          "name": "tokenId",
          "type": "uint256"
        }
      ],
      "name": "Transfer",
      "type": "event"
    },
    {
      "anonymous": false,
      "inputs": [
        {
          "indexed": false,
          "internalType": "string",
          "name": "username",
          "type": "string"
        },
        {
          "indexed": false,
          "internalType": "address",
          "name": "userAddress",
          "type": "address"
        },
        {
          "indexed": false,
          "internalType": "bool",
          "name": "isBusiness",
          "type": "bool"
        },
        {
          "indexed": false,
          "internalType": "string",
          "name": "businessDomain",
          "type": "string"
        },
        {
          "indexed": false,
          "internalType": "string",
          "name": "businessDescription",
          "type": "string"
        },
        {
          "indexed": false,
          "internalType": "string",
          "name": "businessCategory",
          "type": "string"
        }
      ],
      "name": "UserRegistered",
      "type": "event"
    },
    {
      "inputs": [
        {
          "internalType": "address",
          "name": "to",
          "type": "address"
        },
        {
          "internalType": "uint256",
          "name": "tokenId",
          "type": "uint256"
        }
      ],
      "name": "approve",
      "outputs": [],
      "stateMutability": "nonpayable",
      "type": "function"
    },
    {
      "inputs": [
        {
          "internalType": "address",
          "name": "owner",
          "type": "address"
        }
      ],
      "name": "balanceOf",
      "outputs": [
        {
          "internalType": "uint256",
          "name": "",
          "type": "uint256"
        }
      ],
      "stateMutability": "view",
      "type": "function"
    },
    {
      "inputs": [
        {
          "internalType": "uint256",
          "name": "tokenId",
          "type": "uint256"
        },
        {
          "internalType": "string",
          "name": "comment",
          "type": "string"
        }
      ],
      "name": "commentOnReview",
      "outputs": [],
      "stateMutability": "nonpayable",
      "type": "function"
    },
    {
      "inputs": [
        {
          "internalType": "string",
          "name": "tokenURI",
          "type": "string"
        },
        {
          "internalType": "uint256",
          "name": "price",
          "type": "uint256"
        },
        {
          "internalType": "string",
          "name": "businessDomain",
          "type": "string"
        }
      ],
      "name": "createReviewNFT",
      "outputs": [
        {
          "internalType": "uint256",
          "name": "",
          "type": "uint256"
        }
      ],
      "stateMutability": "payable",
      "type": "function"
    },
    {
      "inputs": [
        {
          "internalType": "uint256",
          "name": "tokenId",
          "type": "uint256"
        }
      ],
      "name": "downvoteReview",
      "outputs": [],
      "stateMutability": "nonpayable",
      "type": "function"
    },
    {
      "inputs": [],
      "name": "fetchBusinessDomains",
      "outputs": [
        {
          "internalType": "string[]",
          "name": "",
          "type": "string[]"
        }
      ],
      "stateMutability": "view",
      "type": "function"
    },
    {
      "inputs": [
        {
          "internalType": "string",
          "name": "businessDomain",
          "type": "string"
        }
      ],
      "name": "fetchNFTsByDomain",
      "outputs": [
        {
          "internalType": "uint256[]",
          "name": "",
          "type": "uint256[]"
        }
      ],
      "stateMutability": "view",
      "type": "function"
    },
    {
      "inputs": [],
      "name": "fetchUserNFTs",
      "outputs": [
        {
          "internalType": "uint256[]",
          "name": "",
          "type": "uint256[]"
        }
      ],
      "stateMutability": "view",
      "type": "function"
    },
    {
      "inputs": [
        {
          "internalType": "uint256",
          "name": "tokenId",
          "type": "uint256"
        }
      ],
      "name": "getApproved",
      "outputs": [
        {
          "internalType": "address",
          "name": "",
          "type": "address"
        }
      ],
      "stateMutability": "view",
      "type": "function"
    },
    {
      "inputs": [],
      "name": "getRegisteredDomainCount",
      "outputs": [
        {
          "internalType": "uint256",
          "name": "",
          "type": "uint256"
        }
      ],
      "stateMutability": "view",
      "type": "function"
    },
    {
      "inputs": [],
      "name": "getRegisteredDomains",
      "outputs": [
        {
          "internalType": "string[]",
          "name": "",
          "type": "string[]"
        },
        {
          "internalType": "string[]",
          "name": "",
          "type": "string[]"
        },
        {
          "internalType": "string[]",
          "name": "",
          "type": "string[]"
        }
      ],
      "stateMutability": "view",
      "type": "function"
    },
    {
      "inputs": [],
      "name": "getRegisteredDomainsarray",
      "outputs": [
        {
          "internalType": "string[]",
          "name": "",
          "type": "string[]"
        }
      ],
      "stateMutability": "view",
      "type": "function"
    },
    {
      "inputs": [
        {
          "internalType": "uint256",
          "name": "tokenId",
          "type": "uint256"
        }
      ],
      "name": "getReviewDetails",
      "outputs": [
        {
          "internalType": "string[]",
          "name": "comments",
          "type": "string[]"
        },
        {
          "internalType": "uint256",
          "name": "upvotes",
          "type": "uint256"
        },
        {
          "internalType": "uint256",
          "name": "downvotes",
          "type": "uint256"
        },
        {
          "internalType": "bool",
          "name": "moderated",
          "type": "bool"
        },
        {
          "internalType": "uint256",
          "name": "timestamp",
          "type": "uint256"
        },
        {
          "internalType": "string",
          "name": "category",
          "type": "string"
        }
      ],
      "stateMutability": "view",
      "type": "function"
    },
    {
      "inputs": [
        {
          "internalType": "uint256",
          "name": "tokenId",
          "type": "uint256"
        }
      ],
      "name": "getTotalDownvotes",
      "outputs": [
        {
          "internalType": "uint256",
          "name": "",
          "type": "uint256"
        }
      ],
      "stateMutability": "view",
      "type": "function"
    },
    {
      "inputs": [
        {
          "internalType": "uint256",
          "name": "tokenId",
          "type": "uint256"
        }
      ],
      "name": "getTotalUpvotes",
      "outputs": [
        {
          "internalType": "uint256",
          "name": "",
          "type": "uint256"
        }
      ],
      "stateMutability": "view",
      "type": "function"
    },
    {
      "inputs": [
        {
          "internalType": "uint256",
          "name": "tokenId",
          "type": "uint256"
        }
      ],
      "name": "hasUserVoted",
      "outputs": [
        {
          "internalType": "bool",
          "name": "",
          "type": "bool"
        }
      ],
      "stateMutability": "view",
      "type": "function"
    },
    {
      "inputs": [
        {
          "internalType": "address",
          "name": "owner",
          "type": "address"
        },
        {
          "internalType": "address",
          "name": "operator",
          "type": "address"
        }
      ],
      "name": "isApprovedForAll",
      "outputs": [
        {
          "internalType": "bool",
          "name": "",
          "type": "bool"
        }
      ],
      "stateMutability": "view",
      "type": "function"
    },
    {
      "inputs": [],
      "name": "name",
      "outputs": [
        {
          "internalType": "string",
          "name": "",
          "type": "string"
        }
      ],
      "stateMutability": "view",
      "type": "function"
    },
    {
      "inputs": [
        {
          "internalType": "uint256",
          "name": "tokenId",
          "type": "uint256"
        }
      ],
      "name": "ownerOf",
      "outputs": [
        {
          "internalType": "address",
          "name": "",
          "type": "address"
        }
      ],
      "stateMutability": "view",
      "type": "function"
    },
    {
      "inputs": [
        {
          "internalType": "string",
          "name": "_username",
          "type": "string"
        },
        {
          "internalType": "bool",
          "name": "_isBusiness",
          "type": "bool"
        },
        {
          "internalType": "string",
          "name": "_businessDomain",
          "type": "string"
        },
        {
          "internalType": "string",
          "name": "_businessDescription",
          "type": "string"
        },
        {
          "internalType": "string",
          "name": "_businessCategory",
          "type": "string"
        }
      ],
      "name": "registerUser",
      "outputs": [],
      "stateMutability": "nonpayable",
      "type": "function"
    },
    {
      "inputs": [
        {
          "internalType": "string",
          "name": "",
          "type": "string"
        }
      ],
      "name": "registeredDomains",
      "outputs": [
        {
          "internalType": "bool",
          "name": "",
          "type": "bool"
        }
      ],
      "stateMutability": "view",
      "type": "function"
    },
    {
      "inputs": [
        {
          "internalType": "uint256",
          "name": "",
          "type": "uint256"
        }
      ],
      "name": "registeredDomainsArray",
      "outputs": [
        {
          "internalType": "string",
          "name": "",
          "type": "string"
        }
      ],
      "stateMutability": "view",
      "type": "function"
    },
    {
      "inputs": [
        {
          "internalType": "string",
          "name": "",
          "type": "string"
        }
      ],
      "name": "registeredDomainsInfo",
      "outputs": [
        {
          "internalType": "string",
          "name": "username",
          "type": "string"
        },
        {
          "internalType": "string",
          "name": "category",
          "type": "string"
        },
        {
          "internalType": "string",
          "name": "description",
          "type": "string"
        }
      ],
      "stateMutability": "view",
      "type": "function"
    },
    {
      "inputs": [
        {
          "internalType": "address",
          "name": "from",
          "type": "address"
        },
        {
          "internalType": "address",
          "name": "to",
          "type": "address"
        },
        {
          "internalType": "uint256",
          "name": "tokenId",
          "type": "uint256"
        }
      ],
      "name": "safeTransferFrom",
      "outputs": [],
      "stateMutability": "nonpayable",
      "type": "function"
    },
    {
      "inputs": [
        {
          "internalType": "address",
          "name": "from",
          "type": "address"
        },
        {
          "internalType": "address",
          "name": "to",
          "type": "address"
        },
        {
          "internalType": "uint256",
          "name": "tokenId",
          "type": "uint256"
        },
        {
          "internalType": "bytes",
          "name": "data",
          "type": "bytes"
        }
      ],
      "name": "safeTransferFrom",
      "outputs": [],
      "stateMutability": "nonpayable",
      "type": "function"
    },
    {
      "inputs": [
        {
          "internalType": "address",
          "name": "operator",
          "type": "address"
        },
        {
          "internalType": "bool",
          "name": "approved",
          "type": "bool"
        }
      ],
      "name": "setApprovalForAll",
      "outputs": [],
      "stateMutability": "nonpayable",
      "type": "function"
    },
    {
      "inputs": [
        {
          "internalType": "bytes4",
          "name": "interfaceId",
          "type": "bytes4"
        }
      ],
      "name": "supportsInterface",
      "outputs": [
        {
          "internalType": "bool",
          "name": "",
          "type": "bool"
        }
      ],
      "stateMutability": "view",
      "type": "function"
    },
    {
      "inputs": [],
      "name": "symbol",
      "outputs": [
        {
          "internalType": "string",
          "name": "",
          "type": "string"
        }
      ],
      "stateMutability": "view",
      "type": "function"
    },
    {
      "inputs": [
        {
          "internalType": "uint256",
          "name": "tokenId",
          "type": "uint256"
        }
      ],
      "name": "tokenURI",
      "outputs": [
        {
          "internalType": "string",
          "name": "",
          "type": "string"
        }
      ],
      "stateMutability": "view",
      "type": "function"
    },
    {
      "inputs": [
        {
          "internalType": "address",
          "name": "from",
          "type": "address"
        },
        {
          "internalType": "address",
          "name": "to",
          "type": "address"
        },
        {
          "internalType": "uint256",
          "name": "tokenId",
          "type": "uint256"
        }
      ],
      "name": "transferFrom",
      "outputs": [],
      "stateMutability": "nonpayable",
      "type": "function"
    },
    {
      "inputs": [
        {
          "internalType": "string",
          "name": "_businessDomain",
          "type": "string"
        }
      ],
      "name": "updateBusinessDomain",
      "outputs": [],
      "stateMutability": "nonpayable",
      "type": "function"
    },
    {
      "inputs": [
        {
          "internalType": "uint256",
          "name": "tokenId",
          "type": "uint256"
        }
      ],
      "name": "upvoteReview",
      "outputs": [],
      "stateMutability": "nonpayable",
      "type": "function"
    },
    {
      "inputs": [
        {
          "internalType": "address",
          "name": "",
          "type": "address"
        }
      ],
      "name": "users",
      "outputs": [
        {
          "internalType": "string",
          "name": "username",
          "type": "string"
        },
        {
          "internalType": "bool",
          "name": "isBusiness",
          "type": "bool"
        },
        {
          "internalType": "string",
          "name": "businessDomain",
          "type": "string"
        },
        {
          "internalType": "string",
          "name": "businessDescription",
          "type": "string"
        },
        {
          "internalType": "string",
          "name": "businessCategory",
          "type": "string"
        },
        {
          "internalType": "uint256",
          "name": "reputation",
          "type": "uint256"
        }
      ],
      "stateMutability": "view",
      "type": "function"
    }
  ],
  "bytecode": "0x60806040526658d15e17628000600955600f600a55600a546103e862000026919062000149565b600b553480156200003657600080fd5b506040518060400160405280600781526020017f41727462797465000000000000000000000000000000000000000000000000008152506040518060400160405280600381526020017f41525400000000000000000000000000000000000000000000000000000000008152508160009081620000b49190620003f4565b508060019081620000c69190620003f4565b50505033600c60006101000a81548173ffffffffffffffffffffffffffffffffffffffff021916908373ffffffffffffffffffffffffffffffffffffffff160217905550620004db565b6000819050919050565b7f4e487b7100000000000000000000000000000000000000000000000000000000600052601160045260246000fd5b6000620001568262000110565b9150620001638362000110565b92508282039050818111156200017e576200017d6200011a565b5b92915050565b600081519050919050565b7f4e487b7100000000000000000000000000000000000000000000000000000000600052604160045260246000fd5b7f4e487b7100000000000000000000000000000000000000000000000000000000600052602260045260246000fd5b600060028204905060018216806200020657607f821691505b6020821081036200021c576200021b620001be565b5b50919050565b60008190508160005260206000209050919050565b60006020601f8301049050919050565b600082821b905092915050565b600060088302620002867fffffffffffffffffffffffffffffffffffffffffffffffffffffffffffffffff8262000247565b62000292868362000247565b95508019841693508086168417925050509392505050565b6000819050919050565b6000620002d5620002cf620002c98462000110565b620002aa565b62000110565b9050919050565b6000819050919050565b620002f183620002b4565b620003096200030082620002dc565b84845462000254565b825550505050565b600090565b6200032062000311565b6200032d818484620002e6565b505050565b5b8181101562000355576200034960008262000316565b60018101905062000333565b5050565b601f821115620003a4576200036e8162000222565b620003798462000237565b8101602085101562000389578190505b620003a1620003988562000237565b83018262000332565b50505b505050565b600082821c905092915050565b6000620003c960001984600802620003a9565b1980831691505092915050565b6000620003e48383620003b6565b9150826002028217905092915050565b620003ff8262000184565b67ffffffffffffffff8111156200041b576200041a6200018f565b5b620004278254620001ed565b6200043482828562000359565b600060209050601f8311600181146200046c576000841562000457578287015190505b620004638582620003d6565b865550620004d3565b601f1984166200047c8662000222565b60005b82811015620004a6578489015182556001820191506020850194506020810190506200047f565b86831015620004c65784890151620004c2601f891682620003b6565b8355505b6001600288020188555050505b505050505050565b61573e80620004eb6000396000f3fe6080604052600436106101ed5760003560e01c806380d2ec861161010d578063b2dfa007116100a0578063cf08a1aa1161006f578063cf08a1aa1461077a578063e617de7b146107b7578063e985e9c5146107f9578063ef76280f14610836578063ff5761ac14610861576101ed565b8063b2dfa0071461069a578063b88d4fde146106d7578063bc86efb814610700578063c87b56dd1461073d576101ed565b8063a22cb465116100dc578063a22cb465146105c9578063a87430ba146105f2578063ab076ef414610634578063b1820e7f1461065d576101ed565b806380d2ec86146105165780638b8ca2991461054357806395d89b41146105735780639ed2b0211461059e576101ed565b806323b872dd116101855780636162709b116101545780636162709b146104345780636352211e146104735780636465ffda146104b057806370a08231146104d9576101ed565b806323b872dd1461037c5780633ced6738146103a557806342842e0e146103ce5780635153af5c146103f7576101ed565b8063081812fc116101c1578063081812fc146102ae578063095ea7b3146102eb5780630cf4d8de1461031457806320e1761014610351576101ed565b806281e35d146101f257806301ffc9a71461021d57806306fdde031461025a5780630787e81314610285575b600080fd5b3480156101fe57600080fd5b5061020761088a565b6040516102149190614000565b60405180910390f35b34801561022957600080fd5b50610244600480360381019061023f919061408e565b610a2f565b60405161025191906140d6565b60405180910390f35b34801561026657600080fd5b5061026f610a90565b60405161027c919061413b565b60405180910390f35b34801561029157600080fd5b506102ac60048036038101906102a79190614292565b610b22565b005b3480156102ba57600080fd5b506102d560048036038101906102d09190614311565b610c04565b6040516102e2919061437f565b60405180910390f35b3480156102f757600080fd5b50610312600480360381019061030d91906143c6565b610c20565b005b34801561032057600080fd5b5061033b60048036038101906103369190614311565b610c36565b604051610348919061413b565b60405180910390f35b34801561035d57600080fd5b50610366610ce2565b6040516103739190614000565b60405180910390f35b34801561038857600080fd5b506103a3600480360381019061039e9190614406565b610dbb565b005b3480156103b157600080fd5b506103cc60048036038101906103c79190614311565b610ebd565b005b3480156103da57600080fd5b506103f560048036038101906103f09190614406565b610fc9565b005b34801561040357600080fd5b5061041e60048036038101906104199190614311565b610fe9565b60405161042b91906140d6565b60405180910390f35b34801561044057600080fd5b5061045b60048036038101906104569190614292565b611033565b60405161046a93929190614459565b60405180910390f35b34801561047f57600080fd5b5061049a60048036038101906104959190614311565b61120b565b6040516104a7919061437f565b60405180910390f35b3480156104bc57600080fd5b506104d760048036038101906104d291906144a5565b61121d565b005b3480156104e557600080fd5b5061050060048036038101906104fb9190614501565b611307565b60405161050d919061453d565b60405180910390f35b34801561052257600080fd5b5061052b6113c1565b60405161053a93929190614558565b60405180910390f35b61055d600480360381019061055891906145a4565b61182e565b60405161056a919061453d565b60405180910390f35b34801561057f57600080fd5b506105886119f1565b604051610595919061413b565b60405180910390f35b3480156105aa57600080fd5b506105b3611a83565b6040516105c0919061453d565b60405180910390f35b3480156105d557600080fd5b506105f060048036038101906105eb919061465b565b611b11565b005b3480156105fe57600080fd5b5061061960048036038101906106149190614501565b611b27565b60405161062b9695949392919061469b565b60405180910390f35b34801561064057600080fd5b5061065b60048036038101906106569190614311565b611d90565b005b34801561066957600080fd5b50610684600480360381019061067f9190614292565b611e9c565b60405161069191906147d6565b60405180910390f35b3480156106a657600080fd5b506106c160048036038101906106bc9190614311565b611f3b565b6040516106ce919061453d565b60405180910390f35b3480156106e357600080fd5b506106fe60048036038101906106f99190614899565b611f60565b005b34801561070c57600080fd5b5061072760048036038101906107229190614292565b611f7d565b60405161073491906140d6565b60405180910390f35b34801561074957600080fd5b50610764600480360381019061075f9190614311565b611fb3565b604051610771919061413b565b60405180910390f35b34801561078657600080fd5b506107a1600480360381019061079c9190614311565b6120c6565b6040516107ae919061453d565b60405180910390f35b3480156107c357600080fd5b506107de60048036038101906107d99190614311565b6120eb565b6040516107f09695949392919061491c565b60405180910390f35b34801561080557600080fd5b50610820600480360381019061081b919061498b565b6122aa565b60405161082d91906140d6565b60405180910390f35b34801561084257600080fd5b5061084b61233e565b60405161085891906147d6565b60405180910390f35b34801561086d57600080fd5b50610888600480360381019061088391906149cb565b61247b565b005b60606000610896611a83565b905060008167ffffffffffffffff8111156108b4576108b3614167565b5b6040519080825280602002602001820160405280156108e757816020015b60608152602001906001900390816108d25790505b509050600080600190505b6108fc60076127f6565b8111610a25576000600d6000838152602001908152602001600020600501805461092590614ae5565b80601f016020809104026020016040519081016040528092919081815260200182805461095190614ae5565b801561099e5780601f106109735761010080835404028352916020019161099e565b820191906000526020600020905b81548152906001019060200180831161098157829003601f168201915b50505050509050600081511180156109de5750600f816040516109c19190614b52565b908152602001604051809103902060009054906101000a900460ff165b15610a1157808484815181106109f7576109f6614b69565b5b60200260200101819052508280610a0d90614bc7565b9350505b508080610a1d90614bc7565b9150506108f2565b5081935050505090565b6000634906490660e01b7bffffffffffffffffffffffffffffffffffffffffffffffffffffffff1916827bffffffffffffffffffffffffffffffffffffffffffffffffffffffff19161480610a895750610a8882612804565b5b9050919050565b606060008054610a9f90614ae5565b80601f0160208091040260200160405190810160405280929190818152602001828054610acb90614ae5565b8015610b185780601f10610aed57610100808354040283529160200191610b18565b820191906000526020600020905b815481529060010190602001808311610afb57829003601f168201915b5050505050905090565b600e60003373ffffffffffffffffffffffffffffffffffffffff1673ffffffffffffffffffffffffffffffffffffffff16815260200190815260200160002060010160009054906101000a900460ff16610bb1576040517f08c379a0000000000000000000000000000000000000000000000000000000008152600401610ba890614c81565b60405180910390fd5b80600e60003373ffffffffffffffffffffffffffffffffffffffff1673ffffffffffffffffffffffffffffffffffffffff1681526020019081526020016000206002019081610c009190614e4d565b5050565b6000610c0f826128e6565b50610c198261296e565b9050919050565b610c328282610c2d6129ab565b6129b3565b5050565b60108181548110610c4657600080fd5b906000526020600020016000915090508054610c6190614ae5565b80601f0160208091040260200160405190810160405280929190818152602001828054610c8d90614ae5565b8015610cda5780601f10610caf57610100808354040283529160200191610cda565b820191906000526020600020905b815481529060010190602001808311610cbd57829003601f168201915b505050505081565b60606010805480602002602001604051908101604052809291908181526020016000905b82821015610db2578382906000526020600020018054610d2590614ae5565b80601f0160208091040260200160405190810160405280929190818152602001828054610d5190614ae5565b8015610d9e5780601f10610d7357610100808354040283529160200191610d9e565b820191906000526020600020905b815481529060010190602001808311610d8157829003601f168201915b505050505081526020019060010190610d06565b50505050905090565b600073ffffffffffffffffffffffffffffffffffffffff168273ffffffffffffffffffffffffffffffffffffffff1603610e2d5760006040517f64a0ae92000000000000000000000000000000000000000000000000000000008152600401610e24919061437f565b60405180910390fd5b6000610e418383610e3c6129ab565b6129c5565b90508373ffffffffffffffffffffffffffffffffffffffff168173ffffffffffffffffffffffffffffffffffffffff1614610eb7578382826040517f64283d7b000000000000000000000000000000000000000000000000000000008152600401610eae93929190614f1f565b60405180910390fd5b50505050565b6000600d60008381526020019081526020016000206000015403610f16576040517f08c379a0000000000000000000000000000000000000000000000000000000008152600401610f0d90614fa2565b60405180910390fd5b610f1f81610fe9565b15610f5f576040517f08c379a0000000000000000000000000000000000000000000000000000000008152600401610f5690615034565b60405180910390fd5b600d60008281526020019081526020016000206007016000815480929190610f8690614bc7565b9190505550807f3e92b80b10e08c7af873b630b9789e2185d397ebfd2ef852e410f7da08a21bf3336001604051610fbe929190615054565b60405180910390a250565b610fe483838360405180602001604052806000815250611f60565b505050565b600080600d600084815260200190815260200160002090506000816006018054905011801561102b575060008160070154118061102a575060008160080154115b5b915050919050565b60118180516020810182018051848252602083016020850120818352809550505050505060009150905080600001805461106c90614ae5565b80601f016020809104026020016040519081016040528092919081815260200182805461109890614ae5565b80156110e55780601f106110ba576101008083540402835291602001916110e5565b820191906000526020600020905b8154815290600101906020018083116110c857829003601f168201915b5050505050908060010180546110fa90614ae5565b80601f016020809104026020016040519081016040528092919081815260200182805461112690614ae5565b80156111735780601f1061114857610100808354040283529160200191611173565b820191906000526020600020905b81548152906001019060200180831161115657829003601f168201915b50505050509080600201805461118890614ae5565b80601f01602080910402602001604051908101604052809291908181526020018280546111b490614ae5565b80156112015780601f106111d657610100808354040283529160200191611201565b820191906000526020600020905b8154815290600101906020018083116111e457829003601f168201915b5050505050905083565b6000611216826128e6565b9050919050565b6000600d60008481526020019081526020016000206000015403611276576040517f08c379a000000000000000000000000000000000000000000000000000000000815260040161126d90614fa2565b60405180910390fd5b60008151116112ba576040517f08c379a00000000000000000000000000000000000000000000000000000000081526004016112b1906150c9565b60405180910390fd5b600d6000838152602001908152602001600020600601819080600181540180825580915050600190039060005260206000200160009091909190915090816113029190614e4d565b505050565b60008073ffffffffffffffffffffffffffffffffffffffff168273ffffffffffffffffffffffffffffffffffffffff160361137a5760006040517f89c62b64000000000000000000000000000000000000000000000000000000008152600401611371919061437f565b60405180910390fd5b600360008373ffffffffffffffffffffffffffffffffffffffff1673ffffffffffffffffffffffffffffffffffffffff168152602001908152602001600020549050919050565b60608060606000601080549050905060008167ffffffffffffffff8111156113ec576113eb614167565b5b60405190808252806020026020018201604052801561141f57816020015b606081526020019060019003908161140a5790505b50905060008267ffffffffffffffff81111561143e5761143d614167565b5b60405190808252806020026020018201604052801561147157816020015b606081526020019060019003908161145c5790505b50905060008367ffffffffffffffff8111156114905761148f614167565b5b6040519080825280602002602001820160405280156114c357816020015b60608152602001906001900390816114ae5790505b50905060005b8481101561181b576000601082815481106114e7576114e6614b69565b5b9060005260206000200180546114fc90614ae5565b80601f016020809104026020016040519081016040528092919081815260200182805461152890614ae5565b80156115755780601f1061154a57610100808354040283529160200191611575565b820191906000526020600020905b81548152906001019060200180831161155857829003601f168201915b50505050509050600060118260405161158e9190614b52565b908152602001604051809103902060000180546115aa90614ae5565b80601f01602080910402602001604051908101604052809291908181526020018280546115d690614ae5565b80156116235780601f106115f857610100808354040283529160200191611623565b820191906000526020600020905b81548152906001019060200180831161160657829003601f168201915b50505050509050600060118360405161163c9190614b52565b9081526020016040518091039020600101805461165890614ae5565b80601f016020809104026020016040519081016040528092919081815260200182805461168490614ae5565b80156116d15780601f106116a6576101008083540402835291602001916116d1565b820191906000526020600020905b8154815290600101906020018083116116b457829003601f168201915b5050505050905060006011846040516116ea9190614b52565b9081526020016040518091039020600201805461170690614ae5565b80601f016020809104026020016040519081016040528092919081815260200182805461173290614ae5565b801561177f5780601f106117545761010080835404028352916020019161177f565b820191906000526020600020905b81548152906001019060200180831161176257829003601f168201915b505050505090508388868151811061179a57611799614b69565b5b6020026020010181905250828786815181106117b9576117b8614b69565b5b602002602001018190525081816040516020016117d7929190615135565b6040516020818303038152906040528686815181106117f9576117f8614b69565b5b602002602001018190525050505050808061181390614bc7565b9150506114c9565b5082828296509650965050505050909192565b600080825111611873576040517f08c379a000000000000000000000000000000000000000000000000000000000815260040161186a906151b0565b60405180910390fd5b60008451116118b7576040517f08c379a00000000000000000000000000000000000000000000000000000000081526004016118ae9061521c565b60405180910390fd5b600083116118fa576040517f08c379a00000000000000000000000000000000000000000000000000000000081526004016118f190615288565b60405180910390fd5b6119046007612bdf565b600061191060076127f6565b905061191c3382612bf5565b6119268186612cee565b600f836040516119369190614b52565b908152602001604051809103902060009054906101000a900460ff16611991576040517f08c379a00000000000000000000000000000000000000000000000000000000081526004016119889061531a565b60405180910390fd5b61199b8184612d4a565b156119db576040517f08c379a00000000000000000000000000000000000000000000000000000000081526004016119d2906153ac565b60405180910390fd5b6119e6818585612de5565b809150509392505050565b606060018054611a0090614ae5565b80601f0160208091040260200160405190810160405280929190818152602001828054611a2c90614ae5565b8015611a795780601f10611a4e57610100808354040283529160200191611a79565b820191906000526020600020905b815481529060010190602001808311611a5c57829003601f168201915b5050505050905090565b600080600090506000600190505b611a9b60076127f6565b8111611b0957600f600d6000838152602001908152602001600020600501604051611ac6919061544f565b908152602001604051809103902060009054906101000a900460ff1615611af6578180611af290614bc7565b9250505b8080611b0190614bc7565b915050611a91565b508091505090565b611b23611b1c6129ab565b838361307c565b5050565b600e602052806000526040600020600091509050806000018054611b4a90614ae5565b80601f0160208091040260200160405190810160405280929190818152602001828054611b7690614ae5565b8015611bc35780601f10611b9857610100808354040283529160200191611bc3565b820191906000526020600020905b815481529060010190602001808311611ba657829003601f168201915b5050505050908060010160009054906101000a900460ff1690806002018054611beb90614ae5565b80601f0160208091040260200160405190810160405280929190818152602001828054611c1790614ae5565b8015611c645780601f10611c3957610100808354040283529160200191611c64565b820191906000526020600020905b815481529060010190602001808311611c4757829003601f168201915b505050505090806003018054611c7990614ae5565b80601f0160208091040260200160405190810160405280929190818152602001828054611ca590614ae5565b8015611cf25780601f10611cc757610100808354040283529160200191611cf2565b820191906000526020600020905b815481529060010190602001808311611cd557829003601f168201915b505050505090806004018054611d0790614ae5565b80601f0160208091040260200160405190810160405280929190818152602001828054611d3390614ae5565b8015611d805780601f10611d5557610100808354040283529160200191611d80565b820191906000526020600020905b815481529060010190602001808311611d6357829003601f168201915b5050505050908060050154905086565b6000600d60008381526020019081526020016000206000015403611de9576040517f08c379a0000000000000000000000000000000000000000000000000000000008152600401611de090614fa2565b60405180910390fd5b611df281610fe9565b15611e32576040517f08c379a0000000000000000000000000000000000000000000000000000000008152600401611e2990615034565b60405180910390fd5b600d60008281526020019081526020016000206008016000815480929190611e5990614bc7565b9190505550807f3e92b80b10e08c7af873b630b9789e2185d397ebfd2ef852e410f7da08a21bf3336000604051611e91929190615054565b60405180910390a250565b6060600f82604051611eae9190614b52565b908152602001604051809103902060009054906101000a900460ff168015611ed7575060008251115b611f2a57600067ffffffffffffffff811115611ef657611ef5614167565b5b604051908082528060200260200182016040528015611f245781602001602082028036833780820191505090505b50611f34565b611f33826131eb565b5b9050919050565b600080600d600084815260200190815260200160002090508060070154915050919050565b611f6b848484610dbb565b611f778484848461341e565b50505050565b600f818051602081018201805184825260208301602085012081835280955050505050506000915054906101000a900460ff1681565b6060611fbe826128e6565b506000600660008481526020019081526020016000208054611fdf90614ae5565b80601f016020809104026020016040519081016040528092919081815260200182805461200b90614ae5565b80156120585780601f1061202d57610100808354040283529160200191612058565b820191906000526020600020905b81548152906001019060200180831161203b57829003601f168201915b5050505050905060006120696135d5565b9050600081510361207e5781925050506120c1565b6000825111156120b357808260405160200161209b929190615466565b604051602081830303815290604052925050506120c1565b6120bc846135ec565b925050505b919050565b600080600d600084815260200190815260200160002090508060080154915050919050565b606060008060008060606000600d6000898152602001908152602001600020905080600601816007015482600801548360090160009054906101000a900460ff1684600a015485600b0185805480602002602001604051908101604052809291908181526020016000905b8282101561220257838290600052602060002001805461217590614ae5565b80601f01602080910402602001604051908101604052809291908181526020018280546121a190614ae5565b80156121ee5780601f106121c3576101008083540402835291602001916121ee565b820191906000526020600020905b8154815290600101906020018083116121d157829003601f168201915b505050505081526020019060010190612156565b50505050955080805461221490614ae5565b80601f016020809104026020016040519081016040528092919081815260200182805461224090614ae5565b801561228d5780601f106122625761010080835404028352916020019161228d565b820191906000526020600020905b81548152906001019060200180831161227057829003601f168201915b505050505090509650965096509650965096505091939550919395565b6000600560008473ffffffffffffffffffffffffffffffffffffffff1673ffffffffffffffffffffffffffffffffffffffff16815260200190815260200160002060008373ffffffffffffffffffffffffffffffffffffffff1673ffffffffffffffffffffffffffffffffffffffff16815260200190815260200160002060009054906101000a900460ff16905092915050565b6060600061234c60076127f6565b67ffffffffffffffff81111561236557612364614167565b5b6040519080825280602002602001820160405280156123935781602001602082028036833780820191505090505b509050600080600190505b6123a860076127f6565b811161246f573373ffffffffffffffffffffffffffffffffffffffff16600d600083815260200190815260200160002060010160009054906101000a900473ffffffffffffffffffffffffffffffffffffffff1673ffffffffffffffffffffffffffffffffffffffff160361245c57600d60008281526020019081526020016000206000015483838151811061244157612440614b69565b5b602002602001018181525050818061245890614bc7565b9250505b808061246790614bc7565b91505061239e565b50808252819250505090565b6000600e60003373ffffffffffffffffffffffffffffffffffffffff1673ffffffffffffffffffffffffffffffffffffffff16815260200190815260200160002060000180546124ca90614ae5565b90501461250c576040517f08c379a0000000000000000000000000000000000000000000000000000000008152600401612503906154d6565b60405180910390fd5b6040518060c0016040528086815260200185151581526020018561253f5760405180602001604052806000815250612541565b845b8152602001856125605760405180602001604052806000815250612562565b835b8152602001856125815760405180602001604052806000815250612583565b825b81526020016000815250600e60003373ffffffffffffffffffffffffffffffffffffffff1673ffffffffffffffffffffffffffffffffffffffff16815260200190815260200160002060008201518160000190816125e19190614e4d565b5060208201518160010160006101000a81548160ff02191690831515021790555060408201518160020190816126179190614e4d565b50606082015181600301908161262d9190614e4d565b5060808201518160040190816126439190614e4d565b5060a082015181600501559050508380156126875750600f836040516126699190614b52565b908152602001604051809103902060009054906101000a900460ff16155b156127ae576001600f8460405161269e9190614b52565b908152602001604051809103902060006101000a81548160ff0219169083151502179055506010839080600181540180825580915050600190039060005260206000200160009091909190915090816126f79190614e4d565b506040518060600160405280868152602001828152602001838152506011846040516127239190614b52565b908152602001604051809103902060008201518160000190816127469190614e4d565b50602082015181600101908161275c9190614e4d565b5060408201518160020190816127729190614e4d565b509050507f724dd4cd2e9166c5e23b019f09022009d1a014361e898adfd0fe39ef70a1157b836040516127a5919061413b565b60405180910390a15b7f93c4ec27aa5f4b6352cc738eeecd83248c5927d0be45f4e3eb832ec11bf40d3f8533868686866040516127e7969594939291906154f6565b60405180910390a15050505050565b600081600001549050919050565b60007f80ac58cd000000000000000000000000000000000000000000000000000000007bffffffffffffffffffffffffffffffffffffffffffffffffffffffff1916827bffffffffffffffffffffffffffffffffffffffffffffffffffffffff191614806128cf57507f5b5e139f000000000000000000000000000000000000000000000000000000007bffffffffffffffffffffffffffffffffffffffffffffffffffffffff1916827bffffffffffffffffffffffffffffffffffffffffffffffffffffffff1916145b806128df57506128de82613655565b5b9050919050565b6000806128f2836136bf565b9050600073ffffffffffffffffffffffffffffffffffffffff168173ffffffffffffffffffffffffffffffffffffffff160361296557826040517f7e27328900000000000000000000000000000000000000000000000000000000815260040161295c919061453d565b60405180910390fd5b80915050919050565b60006004600083815260200190815260200160002060009054906101000a900473ffffffffffffffffffffffffffffffffffffffff169050919050565b600033905090565b6129c083838360016136fc565b505050565b6000806129d1846136bf565b9050600073ffffffffffffffffffffffffffffffffffffffff168373ffffffffffffffffffffffffffffffffffffffff1614612a1357612a128184866138c1565b5b600073ffffffffffffffffffffffffffffffffffffffff168173ffffffffffffffffffffffffffffffffffffffff1614612aa457612a556000856000806136fc565b6001600360008373ffffffffffffffffffffffffffffffffffffffff1673ffffffffffffffffffffffffffffffffffffffff168152602001908152602001600020600082825403925050819055505b600073ffffffffffffffffffffffffffffffffffffffff168573ffffffffffffffffffffffffffffffffffffffff1614612b27576001600360008773ffffffffffffffffffffffffffffffffffffffff1673ffffffffffffffffffffffffffffffffffffffff168152602001908152602001600020600082825401925050819055505b846002600086815260200190815260200160002060006101000a81548173ffffffffffffffffffffffffffffffffffffffff021916908373ffffffffffffffffffffffffffffffffffffffff160217905550838573ffffffffffffffffffffffffffffffffffffffff168273ffffffffffffffffffffffffffffffffffffffff167fddf252ad1be2c89b69c2b068fc378daa952ba7f163c4a11628f55a4df523b3ef60405160405180910390a4809150509392505050565b6001816000016000828254019250508190555050565b600073ffffffffffffffffffffffffffffffffffffffff168273ffffffffffffffffffffffffffffffffffffffff1603612c675760006040517f64a0ae92000000000000000000000000000000000000000000000000000000008152600401612c5e919061437f565b60405180910390fd5b6000612c75838360006129c5565b9050600073ffffffffffffffffffffffffffffffffffffffff168173ffffffffffffffffffffffffffffffffffffffff1614612ce95760006040517f73c6ac6e000000000000000000000000000000000000000000000000000000008152600401612ce0919061437f565b60405180910390fd5b505050565b80600660008481526020019081526020016000209081612d0e9190614e4d565b507ff8e1a15aba9398e019f0b49df1a4fde98ee17ae345cb5f6b5e2c27f5033e8ce782604051612d3e919061453d565b60405180910390a15050565b600080600d60008581526020019081526020016000206005018054612d6e90614ae5565b9050118015612ddd575081604051602001612d899190614b52565b60405160208183030381529060405280519060200120600d6000858152602001908152602001600020600501604051602001612dc5919061544f565b60405160208183030381529060405280519060200120145b905092915050565b6040518061018001604052808481526020013373ffffffffffffffffffffffffffffffffffffffff1681526020013073ffffffffffffffffffffffffffffffffffffffff168152602001838152602001600015158152602001828152602001600067ffffffffffffffff811115612e5f57612e5e614167565b5b604051908082528060200260200182016040528015612e9257816020015b6060815260200190600190039081612e7d5790505b508152602001600081526020016000815260200160001515815260200142815260200160405180602001604052806000815250815250600d60008581526020019081526020016000206000820151816000015560208201518160010160006101000a81548173ffffffffffffffffffffffffffffffffffffffff021916908373ffffffffffffffffffffffffffffffffffffffff16021790555060408201518160020160006101000a81548173ffffffffffffffffffffffffffffffffffffffff021916908373ffffffffffffffffffffffffffffffffffffffff1602179055506060820151816003015560808201518160040160006101000a81548160ff02191690831515021790555060a0820151816005019081612fb29190614e4d565b5060c0820151816006019080519060200190612fcf929190613dd4565b5060e0820151816007015561010082015181600801556101208201518160090160006101000a81548160ff02191690831515021790555061014082015181600a015561016082015181600b0190816130279190614e4d565b50905050613036333085613985565b827fddaeb01fb1ddce9789e64660541353c5a90fdd3e87ad074757173128396df02133308560008660405161306f959493929190615573565b60405180910390a2505050565b600073ffffffffffffffffffffffffffffffffffffffff168273ffffffffffffffffffffffffffffffffffffffff16036130ed57816040517f5b08ba180000000000000000000000000000000000000000000000000000000081526004016130e4919061437f565b60405180910390fd5b80600560008573ffffffffffffffffffffffffffffffffffffffff1673ffffffffffffffffffffffffffffffffffffffff16815260200190815260200160002060008473ffffffffffffffffffffffffffffffffffffffff1673ffffffffffffffffffffffffffffffffffffffff16815260200190815260200160002060006101000a81548160ff0219169083151502179055508173ffffffffffffffffffffffffffffffffffffffff168373ffffffffffffffffffffffffffffffffffffffff167f17307eab39ab6107e8899845ad3d59bd9653f200f220920489ca2b5937696c31836040516131de91906140d6565b60405180910390a3505050565b606080600080600190505b61320060076127f6565b81116132bf576000600d6000838152602001908152602001600020600501805461322990614ae5565b90501180156132985750846040516020016132449190614b52565b60405160208183030381529060405280519060200120600d6000838152602001908152602001600020600501604051602001613280919061544f565b60405160208183030381529060405280519060200120145b156132ac5781806132a890614bc7565b9250505b80806132b790614bc7565b9150506131f6565b508067ffffffffffffffff8111156132da576132d9614167565b5b6040519080825280602002602001820160405280156133085781602001602082028036833780820191505090505b509150600080600190505b61331d60076127f6565b8111613412576000600d6000838152602001908152602001600020600501805461334690614ae5565b90501180156133b55750856040516020016133619190614b52565b60405160208183030381529060405280519060200120600d600083815260200190815260200160002060050160405160200161339d919061544f565b60405160208183030381529060405280519060200120145b156133ff57600d6000828152602001908152602001600020600001548483815181106133e4576133e3614b69565b5b60200260200101818152505081806133fb90614bc7565b9250505b808061340a90614bc7565b915050613313565b50829350505050919050565b60008373ffffffffffffffffffffffffffffffffffffffff163b11156135cf578273ffffffffffffffffffffffffffffffffffffffff1663150b7a026134626129ab565b8685856040518563ffffffff1660e01b81526004016134849493929190615622565b6020604051808303816000875af19250505080156134c057506040513d601f19601f820116820180604052508101906134bd9190615683565b60015b613544573d80600081146134f0576040519150601f19603f3d011682016040523d82523d6000602084013e6134f5565b606091505b50600081510361353c57836040517f64a0ae92000000000000000000000000000000000000000000000000000000008152600401613533919061437f565b60405180910390fd5b805181602001fd5b63150b7a0260e01b7bffffffffffffffffffffffffffffffffffffffffffffffffffffffff1916817bffffffffffffffffffffffffffffffffffffffffffffffffffffffff1916146135cd57836040517f64a0ae920000000000000000000000000000000000000000000000000000000081526004016135c4919061437f565b60405180910390fd5b505b50505050565b606060405180602001604052806000815250905090565b60606135f7826128e6565b5060006136026135d5565b90506000815111613622576040518060200160405280600081525061364d565b8061362c84613af2565b60405160200161363d929190615466565b6040516020818303038152906040525b915050919050565b60007f01ffc9a7000000000000000000000000000000000000000000000000000000007bffffffffffffffffffffffffffffffffffffffffffffffffffffffff1916827bffffffffffffffffffffffffffffffffffffffffffffffffffffffff1916149050919050565b60006002600083815260200190815260200160002060009054906101000a900473ffffffffffffffffffffffffffffffffffffffff169050919050565b80806137355750600073ffffffffffffffffffffffffffffffffffffffff168273ffffffffffffffffffffffffffffffffffffffff1614155b15613869576000613745846128e6565b9050600073ffffffffffffffffffffffffffffffffffffffff168373ffffffffffffffffffffffffffffffffffffffff16141580156137b057508273ffffffffffffffffffffffffffffffffffffffff168173ffffffffffffffffffffffffffffffffffffffff1614155b80156137c357506137c181846122aa565b155b1561380557826040517fa9fbf51f0000000000000000000000000000000000000000000000000000000081526004016137fc919061437f565b60405180910390fd5b811561386757838573ffffffffffffffffffffffffffffffffffffffff168273ffffffffffffffffffffffffffffffffffffffff167f8c5be1e5ebec7d5bd14f71427d1e84f3dd0314c0f7b2291e5b200ac8c7c3b92560405160405180910390a45b505b836004600085815260200190815260200160002060006101000a81548173ffffffffffffffffffffffffffffffffffffffff021916908373ffffffffffffffffffffffffffffffffffffffff16021790555050505050565b6138cc838383613bc0565b61398057600073ffffffffffffffffffffffffffffffffffffffff168373ffffffffffffffffffffffffffffffffffffffff160361394157806040517f7e273289000000000000000000000000000000000000000000000000000000008152600401613938919061453d565b60405180910390fd5b81816040517f177e802f0000000000000000000000000000000000000000000000000000000081526004016139779291906156b0565b60405180910390fd5b505050565b600073ffffffffffffffffffffffffffffffffffffffff168273ffffffffffffffffffffffffffffffffffffffff16036139f75760006040517f64a0ae920000000000000000000000000000000000000000000000000000000081526004016139ee919061437f565b60405180910390fd5b6000613a05838360006129c5565b9050600073ffffffffffffffffffffffffffffffffffffffff168173ffffffffffffffffffffffffffffffffffffffff1603613a7857816040517f7e273289000000000000000000000000000000000000000000000000000000008152600401613a6f919061453d565b60405180910390fd5b8373ffffffffffffffffffffffffffffffffffffffff168173ffffffffffffffffffffffffffffffffffffffff1614613aec578382826040517f64283d7b000000000000000000000000000000000000000000000000000000008152600401613ae393929190614f1f565b60405180910390fd5b50505050565b606060006001613b0184613c81565b01905060008167ffffffffffffffff811115613b2057613b1f614167565b5b6040519080825280601f01601f191660200182016040528015613b525781602001600182028036833780820191505090505b509050600082602001820190505b600115613bb5578080600190039150507f3031323334353637383961626364656600000000000000000000000000000000600a86061a8153600a8581613ba957613ba86156d9565b5b04945060008503613b60575b819350505050919050565b60008073ffffffffffffffffffffffffffffffffffffffff168373ffffffffffffffffffffffffffffffffffffffff1614158015613c7857508273ffffffffffffffffffffffffffffffffffffffff168473ffffffffffffffffffffffffffffffffffffffff161480613c395750613c3884846122aa565b5b80613c7757508273ffffffffffffffffffffffffffffffffffffffff16613c5f8361296e565b73ffffffffffffffffffffffffffffffffffffffff16145b5b90509392505050565b600080600090507a184f03e93ff9f4daa797ed6e38ed64bf6a1f0100000000000000008310613cdf577a184f03e93ff9f4daa797ed6e38ed64bf6a1f0100000000000000008381613cd557613cd46156d9565b5b0492506040810190505b6d04ee2d6d415b85acef81000000008310613d1c576d04ee2d6d415b85acef81000000008381613d1257613d116156d9565b5b0492506020810190505b662386f26fc100008310613d4b57662386f26fc100008381613d4157613d406156d9565b5b0492506010810190505b6305f5e1008310613d74576305f5e1008381613d6a57613d696156d9565b5b0492506008810190505b6127108310613d99576127108381613d8f57613d8e6156d9565b5b0492506004810190505b60648310613dbc5760648381613db257613db16156d9565b5b0492506002810190505b600a8310613dcb576001810190505b80915050919050565b828054828255906000526020600020908101928215613e1c579160200282015b82811115613e1b578251829081613e0b9190614e4d565b5091602001919060010190613df4565b5b509050613e299190613e2d565b5090565b5b80821115613e4d5760008181613e449190613e51565b50600101613e2e565b5090565b508054613e5d90614ae5565b6000825580601f10613e6f5750613e8e565b601f016020900490600052602060002090810190613e8d9190613e91565b5b50565b5b80821115613eaa576000816000905550600101613e92565b5090565b600081519050919050565b600082825260208201905092915050565b6000819050602082019050919050565b600081519050919050565b600082825260208201905092915050565b60005b83811015613f14578082015181840152602081019050613ef9565b60008484015250505050565b6000601f19601f8301169050919050565b6000613f3c82613eda565b613f468185613ee5565b9350613f56818560208601613ef6565b613f5f81613f20565b840191505092915050565b6000613f768383613f31565b905092915050565b6000602082019050919050565b6000613f9682613eae565b613fa08185613eb9565b935083602082028501613fb285613eca565b8060005b85811015613fee5784840389528151613fcf8582613f6a565b9450613fda83613f7e565b925060208a01995050600181019050613fb6565b50829750879550505050505092915050565b6000602082019050818103600083015261401a8184613f8b565b905092915050565b6000604051905090565b600080fd5b600080fd5b60007fffffffff0000000000000000000000000000000000000000000000000000000082169050919050565b61406b81614036565b811461407657600080fd5b50565b60008135905061408881614062565b92915050565b6000602082840312156140a4576140a361402c565b5b60006140b284828501614079565b91505092915050565b60008115159050919050565b6140d0816140bb565b82525050565b60006020820190506140eb60008301846140c7565b92915050565b600082825260208201905092915050565b600061410d82613eda565b61411781856140f1565b9350614127818560208601613ef6565b61413081613f20565b840191505092915050565b600060208201905081810360008301526141558184614102565b905092915050565b600080fd5b600080fd5b7f4e487b7100000000000000000000000000000000000000000000000000000000600052604160045260246000fd5b61419f82613f20565b810181811067ffffffffffffffff821117156141be576141bd614167565b5b80604052505050565b60006141d1614022565b90506141dd8282614196565b919050565b600067ffffffffffffffff8211156141fd576141fc614167565b5b61420682613f20565b9050602081019050919050565b82818337600083830152505050565b6000614235614230846141e2565b6141c7565b90508281526020810184848401111561425157614250614162565b5b61425c848285614213565b509392505050565b600082601f8301126142795761427861415d565b5b8135614289848260208601614222565b91505092915050565b6000602082840312156142a8576142a761402c565b5b600082013567ffffffffffffffff8111156142c6576142c5614031565b5b6142d284828501614264565b91505092915050565b6000819050919050565b6142ee816142db565b81146142f957600080fd5b50565b60008135905061430b816142e5565b92915050565b6000602082840312156143275761432661402c565b5b6000614335848285016142fc565b91505092915050565b600073ffffffffffffffffffffffffffffffffffffffff82169050919050565b60006143698261433e565b9050919050565b6143798161435e565b82525050565b60006020820190506143946000830184614370565b92915050565b6143a38161435e565b81146143ae57600080fd5b50565b6000813590506143c08161439a565b92915050565b600080604083850312156143dd576143dc61402c565b5b60006143eb858286016143b1565b92505060206143fc858286016142fc565b9150509250929050565b60008060006060848603121561441f5761441e61402c565b5b600061442d868287016143b1565b935050602061443e868287016143b1565b925050604061444f868287016142fc565b9150509250925092565b600060608201905081810360008301526144738186614102565b905081810360208301526144878185614102565b9050818103604083015261449b8184614102565b9050949350505050565b600080604083850312156144bc576144bb61402c565b5b60006144ca858286016142fc565b925050602083013567ffffffffffffffff8111156144eb576144ea614031565b5b6144f785828601614264565b9150509250929050565b6000602082840312156145175761451661402c565b5b6000614525848285016143b1565b91505092915050565b614537816142db565b82525050565b6000602082019050614552600083018461452e565b92915050565b600060608201905081810360008301526145728186613f8b565b905081810360208301526145868185613f8b565b9050818103604083015261459a8184613f8b565b9050949350505050565b6000806000606084860312156145bd576145bc61402c565b5b600084013567ffffffffffffffff8111156145db576145da614031565b5b6145e786828701614264565b93505060206145f8868287016142fc565b925050604084013567ffffffffffffffff81111561461957614618614031565b5b61462586828701614264565b9150509250925092565b614638816140bb565b811461464357600080fd5b50565b6000813590506146558161462f565b92915050565b600080604083850312156146725761467161402c565b5b6000614680858286016143b1565b925050602061469185828601614646565b9150509250929050565b600060c08201905081810360008301526146b58189614102565b90506146c460208301886140c7565b81810360408301526146d68187614102565b905081810360608301526146ea8186614102565b905081810360808301526146fe8185614102565b905061470d60a083018461452e565b979650505050505050565b600081519050919050565b600082825260208201905092915050565b6000819050602082019050919050565b61474d816142db565b82525050565b600061475f8383614744565b60208301905092915050565b6000602082019050919050565b600061478382614718565b61478d8185614723565b935061479883614734565b8060005b838110156147c95781516147b08882614753565b97506147bb8361476b565b92505060018101905061479c565b5085935050505092915050565b600060208201905081810360008301526147f08184614778565b905092915050565b600067ffffffffffffffff82111561481357614812614167565b5b61481c82613f20565b9050602081019050919050565b600061483c614837846147f8565b6141c7565b90508281526020810184848401111561485857614857614162565b5b614863848285614213565b509392505050565b600082601f8301126148805761487f61415d565b5b8135614890848260208601614829565b91505092915050565b600080600080608085870312156148b3576148b261402c565b5b60006148c1878288016143b1565b94505060206148d2878288016143b1565b93505060406148e3878288016142fc565b925050606085013567ffffffffffffffff81111561490457614903614031565b5b6149108782880161486b565b91505092959194509250565b600060c08201905081810360008301526149368189613f8b565b9050614945602083018861452e565b614952604083018761452e565b61495f60608301866140c7565b61496c608083018561452e565b81810360a083015261497e8184614102565b9050979650505050505050565b600080604083850312156149a2576149a161402c565b5b60006149b0858286016143b1565b92505060206149c1858286016143b1565b9150509250929050565b600080600080600060a086880312156149e7576149e661402c565b5b600086013567ffffffffffffffff811115614a0557614a04614031565b5b614a1188828901614264565b9550506020614a2288828901614646565b945050604086013567ffffffffffffffff811115614a4357614a42614031565b5b614a4f88828901614264565b935050606086013567ffffffffffffffff811115614a7057614a6f614031565b5b614a7c88828901614264565b925050608086013567ffffffffffffffff811115614a9d57614a9c614031565b5b614aa988828901614264565b9150509295509295909350565b7f4e487b7100000000000000000000000000000000000000000000000000000000600052602260045260246000fd5b60006002820490506001821680614afd57607f821691505b602082108103614b1057614b0f614ab6565b5b50919050565b600081905092915050565b6000614b2c82613eda565b614b368185614b16565b9350614b46818560208601613ef6565b80840191505092915050565b6000614b5e8284614b21565b915081905092915050565b7f4e487b7100000000000000000000000000000000000000000000000000000000600052603260045260246000fd5b7f4e487b7100000000000000000000000000000000000000000000000000000000600052601160045260246000fd5b6000614bd2826142db565b91507fffffffffffffffffffffffffffffffffffffffffffffffffffffffffffffffff8203614c0457614c03614b98565b5b600182019050919050565b7f4f6e6c7920627573696e6573732075736572732063616e20757064617465207460008201527f686520627573696e65737320646f6d61696e0000000000000000000000000000602082015250565b6000614c6b6032836140f1565b9150614c7682614c0f565b604082019050919050565b60006020820190508181036000830152614c9a81614c5e565b9050919050565b60008190508160005260206000209050919050565b60006020601f8301049050919050565b600082821b905092915050565b600060088302614d037fffffffffffffffffffffffffffffffffffffffffffffffffffffffffffffffff82614cc6565b614d0d8683614cc6565b95508019841693508086168417925050509392505050565b6000819050919050565b6000614d4a614d45614d40846142db565b614d25565b6142db565b9050919050565b6000819050919050565b614d6483614d2f565b614d78614d7082614d51565b848454614cd3565b825550505050565b600090565b614d8d614d80565b614d98818484614d5b565b505050565b5b81811015614dbc57614db1600082614d85565b600181019050614d9e565b5050565b601f821115614e0157614dd281614ca1565b614ddb84614cb6565b81016020851015614dea578190505b614dfe614df685614cb6565b830182614d9d565b50505b505050565b600082821c905092915050565b6000614e2460001984600802614e06565b1980831691505092915050565b6000614e3d8383614e13565b9150826002028217905092915050565b614e5682613eda565b67ffffffffffffffff811115614e6f57614e6e614167565b5b614e798254614ae5565b614e84828285614dc0565b600060209050601f831160018114614eb75760008415614ea5578287015190505b614eaf8582614e31565b865550614f17565b601f198416614ec586614ca1565b60005b82811015614eed57848901518255600182019150602085019450602081019050614ec8565b86831015614f0a5784890151614f06601f891682614e13565b8355505b6001600288020188555050505b505050505050565b6000606082019050614f346000830186614370565b614f41602083018561452e565b614f4e6040830184614370565b949350505050565b7f52657669657720646f6573206e6f742065786973740000000000000000000000600082015250565b6000614f8c6015836140f1565b9150614f9782614f56565b602082019050919050565b60006020820190508181036000830152614fbb81614f7f565b9050919050565b7f557365722068617320616c726561647920766f74656420666f7220746869732060008201527f7265766965770000000000000000000000000000000000000000000000000000602082015250565b600061501e6026836140f1565b915061502982614fc2565b604082019050919050565b6000602082019050818103600083015261504d81615011565b9050919050565b60006040820190506150696000830185614370565b61507660208301846140c7565b9392505050565b7f436f6d6d656e742063616e6e6f7420626520656d707479000000000000000000600082015250565b60006150b36017836140f1565b91506150be8261507d565b602082019050919050565b600060208201905081810360008301526150e2816150a6565b9050919050565b7f2000000000000000000000000000000000000000000000000000000000000000600082015250565b600061511f600183614b16565b915061512a826150e9565b600182019050919050565b60006151418285614b21565b915061514c82615112565b91506151588284614b21565b91508190509392505050565b7f427573696e65737320646f6d61696e2069732072657175697265640000000000600082015250565b600061519a601b836140f1565b91506151a582615164565b602082019050919050565b600060208201905081810360008301526151c98161518d565b9050919050565b7f546f6b656e205552492069732072657175697265640000000000000000000000600082015250565b60006152066015836140f1565b9150615211826151d0565b602082019050919050565b60006020820190508181036000830152615235816151f9565b9050919050565b7f5072696365206d757374206265206174206c6561737420310000000000000000600082015250565b60006152726018836140f1565b915061527d8261523c565b602082019050919050565b600060208201905081810360008301526152a181615265565b9050919050565b7f427573696e65737320646f6d61696e206973206e6f742072656769737465726560008201527f6400000000000000000000000000000000000000000000000000000000000000602082015250565b60006153046021836140f1565b915061530f826152a8565b604082019050919050565b60006020820190508181036000830152615333816152f7565b9050919050565b7f4e465420697320616c7265616479206173736f6369617465642077697468207460008201527f68697320646f6d61696e00000000000000000000000000000000000000000000602082015250565b6000615396602a836140f1565b91506153a18261533a565b604082019050919050565b600060208201905081810360008301526153c581615389565b9050919050565b600081546153d981614ae5565b6153e38186614b16565b945060018216600081146153fe576001811461541357615446565b60ff1983168652811515820286019350615446565b61541c85614ca1565b60005b8381101561543e5781548189015260018201915060208101905061541f565b838801955050505b50505092915050565b600061545b82846153cc565b915081905092915050565b60006154728285614b21565b915061547e8284614b21565b91508190509392505050565b7f5573657220616c72656164792072656769737465726564000000000000000000600082015250565b60006154c06017836140f1565b91506154cb8261548a565b602082019050919050565b600060208201905081810360008301526154ef816154b3565b9050919050565b600060c08201905081810360008301526155108189614102565b905061551f6020830188614370565b61552c60408301876140c7565b818103606083015261553e8186614102565b905081810360808301526155528185614102565b905081810360a08301526155668184614102565b9050979650505050505050565b600060a0820190506155886000830188614370565b6155956020830187614370565b6155a2604083018661452e565b6155af60608301856140c7565b81810360808301526155c18184614102565b90509695505050505050565b600081519050919050565b600082825260208201905092915050565b60006155f4826155cd565b6155fe81856155d8565b935061560e818560208601613ef6565b61561781613f20565b840191505092915050565b60006080820190506156376000830187614370565b6156446020830186614370565b615651604083018561452e565b818103606083015261566381846155e9565b905095945050505050565b60008151905061567d81614062565b92915050565b6000602082840312156156995761569861402c565b5b60006156a78482850161566e565b91505092915050565b60006040820190506156c56000830185614370565b6156d2602083018461452e565b9392505050565b7f4e487b7100000000000000000000000000000000000000000000000000000000600052601260045260246000fdfea2646970667358221220bf9bd194d11bff4fe33936c747506cbd279e38dddddb5a41b9f90a50c54186a264736f6c63430008140033",
  "linkReferences": {},
  "deployedLinkReferences": {}
}